{
  "contractName": "MarketPlace",
  "abi": [
    {
      "constant": true,
      "inputs": [
        {
          "name": "",
          "type": "address"
        }
      ],
      "name": "storeOwners",
      "outputs": [
        {
          "name": "",
          "type": "bool"
        }
      ],
      "payable": false,
      "stateMutability": "view",
      "type": "function",
      "signature": "0x057cc2a1"
    },
    {
      "constant": true,
      "inputs": [
        {
          "name": "",
          "type": "uint256"
        }
      ],
      "name": "storeFronttoStoreOwner",
      "outputs": [
        {
          "name": "",
          "type": "address"
        }
      ],
      "payable": false,
      "stateMutability": "view",
      "type": "function",
      "signature": "0x13db203e"
    },
    {
      "constant": true,
      "inputs": [],
      "name": "adminCount",
      "outputs": [
        {
          "name": "",
          "type": "uint256"
        }
      ],
      "payable": false,
      "stateMutability": "view",
      "type": "function",
      "signature": "0x2b7832b3"
    },
    {
      "constant": true,
      "inputs": [
        {
          "name": "",
          "type": "uint256"
        }
      ],
      "name": "storeFronts",
      "outputs": [
        {
          "name": "storeName",
          "type": "string"
        },
        {
          "name": "storeOwner",
          "type": "address"
        },
        {
          "name": "approverAdmin",
          "type": "address"
        },
        {
          "name": "skuCount",
          "type": "uint256"
        },
        {
          "name": "balance",
          "type": "uint256"
        },
        {
          "name": "state",
          "type": "bool"
        }
      ],
      "payable": false,
      "stateMutability": "view",
      "type": "function",
      "signature": "0x3191d401"
    },
    {
      "constant": true,
      "inputs": [
        {
          "name": "",
          "type": "address"
        },
        {
          "name": "",
          "type": "uint256"
        }
      ],
      "name": "storeOwnertoStoreFront",
      "outputs": [
        {
          "name": "",
          "type": "uint256"
        }
      ],
      "payable": false,
      "stateMutability": "view",
      "type": "function",
      "signature": "0x42907cef"
    },
    {
      "constant": true,
      "inputs": [
        {
          "name": "",
          "type": "address"
        }
      ],
      "name": "admins",
      "outputs": [
        {
          "name": "",
          "type": "bool"
        }
      ],
      "payable": false,
      "stateMutability": "view",
      "type": "function",
      "signature": "0x429b62e5"
    },
    {
      "constant": false,
      "inputs": [],
      "name": "renounceOwnership",
      "outputs": [],
      "payable": false,
      "stateMutability": "nonpayable",
      "type": "function",
      "signature": "0x715018a6"
    },
    {
      "constant": true,
      "inputs": [
        {
          "name": "",
          "type": "uint256"
        }
      ],
      "name": "StoreProducts",
      "outputs": [
        {
          "name": "name",
          "type": "string"
        },
        {
          "name": "storeNum",
          "type": "uint256"
        },
        {
          "name": "productNum",
          "type": "uint256"
        },
        {
          "name": "price",
          "type": "uint256"
        },
        {
          "name": "quantity",
          "type": "uint256"
        },
        {
          "name": "isAvailable",
          "type": "bool"
        }
      ],
      "payable": false,
      "stateMutability": "view",
      "type": "function",
      "signature": "0x8c70439a"
    },
    {
      "constant": true,
      "inputs": [],
      "name": "owner",
      "outputs": [
        {
          "name": "",
          "type": "address"
        }
      ],
      "payable": false,
      "stateMutability": "view",
      "type": "function",
      "signature": "0x8da5cb5b"
    },
    {
      "constant": true,
      "inputs": [],
      "name": "isOwner",
      "outputs": [
        {
          "name": "",
          "type": "bool"
        }
      ],
      "payable": false,
      "stateMutability": "view",
      "type": "function",
      "signature": "0x8f32d59b"
    },
    {
      "constant": true,
      "inputs": [],
      "name": "storeCount",
      "outputs": [
        {
          "name": "",
          "type": "uint256"
        }
      ],
      "payable": false,
      "stateMutability": "view",
      "type": "function",
      "signature": "0xa1b141d4"
    },
    {
      "constant": true,
      "inputs": [],
      "name": "marktState",
      "outputs": [
        {
          "name": "",
          "type": "bool"
        }
      ],
      "payable": false,
      "stateMutability": "view",
      "type": "function",
      "signature": "0xa954d1e4"
    },
    {
      "constant": true,
      "inputs": [],
      "name": "storeOwnersCount",
      "outputs": [
        {
          "name": "",
          "type": "uint256"
        }
      ],
      "payable": false,
      "stateMutability": "view",
      "type": "function",
      "signature": "0xb75fd88f"
    },
    {
      "constant": true,
      "inputs": [],
      "name": "productCount",
      "outputs": [
        {
          "name": "",
          "type": "uint256"
        }
      ],
      "payable": false,
      "stateMutability": "view",
      "type": "function",
      "signature": "0xe0f6ef87"
    },
    {
      "constant": false,
      "inputs": [
        {
          "name": "newOwner",
          "type": "address"
        }
      ],
      "name": "transferOwnership",
      "outputs": [],
      "payable": false,
      "stateMutability": "nonpayable",
      "type": "function",
      "signature": "0xf2fde38b"
    },
    {
      "constant": true,
      "inputs": [
        {
          "name": "",
          "type": "uint256"
        },
        {
          "name": "",
          "type": "uint256"
        }
      ],
      "name": "stotrFronttoProducts",
      "outputs": [
        {
          "name": "",
          "type": "uint256"
        }
      ],
      "payable": false,
      "stateMutability": "view",
      "type": "function",
      "signature": "0xf452df38"
    },
    {
      "inputs": [],
      "payable": false,
      "stateMutability": "nonpayable",
      "type": "constructor",
      "signature": "constructor"
    },
    {
      "payable": true,
      "stateMutability": "payable",
      "type": "fallback"
    },
    {
      "anonymous": false,
      "inputs": [
        {
          "indexed": false,
          "name": "newAdmin",
          "type": "address"
        }
      ],
      "name": "adminAdded",
      "type": "event",
      "signature": "0xefcbb6030dbeda3448a657cc462d3fde6f3b78e2710bd7b2d9e2ab358a12e170"
    },
    {
      "anonymous": false,
      "inputs": [
        {
          "indexed": false,
          "name": "admin",
          "type": "address"
        }
      ],
      "name": "adminRemoved",
      "type": "event",
      "signature": "0x8adc42fe197f62d1339f8e8570b227253823274a8158b4428824e0848e9e74c5"
    },
    {
      "anonymous": false,
      "inputs": [
        {
          "indexed": false,
          "name": "newStoreOwner",
          "type": "address"
        }
      ],
      "name": "storeOwnerAdded",
      "type": "event",
      "signature": "0xc48be1259827f286158037425eac2071e5a2ce505bf01d53384e77fa0ef60da2"
    },
    {
      "anonymous": false,
      "inputs": [
        {
          "indexed": false,
          "name": "storeOwner",
          "type": "address"
        }
      ],
      "name": "storeOwnerRemoved",
      "type": "event",
      "signature": "0x22caa343850d2d07f25e3192677ebe186d760928866ff8c06e97aee771f0095f"
    },
    {
      "anonymous": false,
      "inputs": [
        {
          "indexed": false,
          "name": "state",
          "type": "bool"
        }
      ],
      "name": "marketStateChanged",
      "type": "event",
      "signature": "0xe9c1b24a64a472afd01a6d6091bc183170b8e6dbe9dad7dfb6f81adac3ee9828"
    },
    {
      "anonymous": false,
      "inputs": [
        {
          "indexed": false,
          "name": "storeNum",
          "type": "uint256"
        },
        {
          "indexed": false,
          "name": "storeName",
          "type": "string"
        },
        {
          "indexed": false,
          "name": "storeOwner",
          "type": "address"
        }
      ],
      "name": "storeFrontCreated",
      "type": "event",
      "signature": "0x981bdf87b6a5937751ec714254f33c9280af322ed4c6744b1ba943aae982b606"
    },
    {
      "anonymous": false,
      "inputs": [
        {
          "indexed": false,
          "name": "storeNum",
          "type": "uint256"
        },
        {
          "indexed": false,
          "name": "admin",
          "type": "address"
        }
      ],
      "name": "storeFrontApproved",
      "type": "event",
      "signature": "0x9f83727d978b1193e2ac81836315bf23a536181b5bddbcbf39f987dbf2b1fee0"
    },
    {
      "anonymous": false,
      "inputs": [
        {
          "indexed": false,
          "name": "storeNum",
          "type": "uint256"
        },
        {
          "indexed": false,
          "name": "productName",
          "type": "string"
        },
        {
          "indexed": false,
          "name": "productNum",
          "type": "uint256"
        }
      ],
      "name": "productAdded",
      "type": "event",
      "signature": "0xffc61c86dc65391f52b36f4b6e6bbdf5a9352c0bdfa13d44bbcf775695cf844a"
    },
    {
      "anonymous": false,
      "inputs": [
        {
          "indexed": false,
          "name": "storeNum",
          "type": "uint256"
        },
        {
          "indexed": false,
          "name": "productNum",
          "type": "uint256"
        }
      ],
      "name": "productPriceUpdated",
      "type": "event",
      "signature": "0x9987862e9f463e3075602b8f1247bada327ce78280095dd85620ae7e879a8b6e"
    },
    {
      "anonymous": false,
      "inputs": [
        {
          "indexed": false,
          "name": "storeNum",
          "type": "uint256"
        },
        {
          "indexed": false,
          "name": "productNum",
          "type": "uint256"
        }
      ],
      "name": "productRemoved",
      "type": "event",
      "signature": "0xee5c25bc05965731664c56badbcca59a6253500c527c65804cd0767ae581b92b"
    },
    {
      "anonymous": false,
      "inputs": [
        {
          "indexed": false,
          "name": "amount",
          "type": "uint256"
        },
        {
          "indexed": false,
          "name": "storeNum",
          "type": "uint256"
        },
        {
          "indexed": false,
          "name": "storeOwner",
          "type": "address"
        }
      ],
      "name": "storeWithdrawn",
      "type": "event",
      "signature": "0x101ec0c68f1fc97c09cf17d4a562d7d7d1c37f3b384207db8f5e14f221f356de"
    },
    {
      "anonymous": false,
      "inputs": [
        {
          "indexed": false,
          "name": "storeNum",
          "type": "uint256"
        },
        {
          "indexed": false,
          "name": "productNum",
          "type": "uint256"
        },
        {
          "indexed": false,
          "name": "quantity",
          "type": "uint256"
        },
        {
          "indexed": false,
          "name": "shopper",
          "type": "address"
        }
      ],
      "name": "productPurchased",
      "type": "event",
      "signature": "0x324053f20c3456e1c74e05e0171fc80eff371fe7eb33719a81ecded399e31e34"
    },
    {
      "anonymous": false,
      "inputs": [
        {
          "indexed": true,
          "name": "previousOwner",
          "type": "address"
        },
        {
          "indexed": true,
          "name": "newOwner",
          "type": "address"
        }
      ],
      "name": "OwnershipTransferred",
      "type": "event",
      "signature": "0x8be0079c531659141344cd1fd0a4f28419497f9722a3daafe3b4186f6b6457e0"
    },
    {
      "constant": false,
      "inputs": [
        {
          "name": "_newAdmin",
          "type": "address"
        }
      ],
      "name": "addAdmin",
      "outputs": [],
      "payable": false,
      "stateMutability": "nonpayable",
      "type": "function",
      "signature": "0x70480275"
    },
    {
      "constant": false,
      "inputs": [
        {
          "name": "_admin",
          "type": "address"
        }
      ],
      "name": "removeAdmin",
      "outputs": [],
      "payable": false,
      "stateMutability": "nonpayable",
      "type": "function",
      "signature": "0x1785f53c"
    },
    {
      "constant": false,
      "inputs": [
        {
          "name": "_newStoreOwner",
          "type": "address"
        }
      ],
      "name": "addStoreOwner",
      "outputs": [],
      "payable": false,
      "stateMutability": "nonpayable",
      "type": "function",
      "signature": "0x9adeb5f1"
    },
    {
      "constant": false,
      "inputs": [
        {
          "name": "_storeOwner",
          "type": "address"
        }
      ],
      "name": "removeStoreOwner",
      "outputs": [],
      "payable": false,
      "stateMutability": "nonpayable",
      "type": "function",
      "signature": "0x6174fdd1"
    },
    {
      "constant": false,
      "inputs": [
        {
          "name": "_state",
          "type": "bool"
        }
      ],
      "name": "changeMarketState",
      "outputs": [],
      "payable": false,
      "stateMutability": "nonpayable",
      "type": "function",
      "signature": "0xd202330f"
    },
    {
      "constant": true,
      "inputs": [],
      "name": "getMarketState",
      "outputs": [
        {
          "name": "",
          "type": "bool"
        }
      ],
      "payable": false,
      "stateMutability": "view",
      "type": "function",
      "signature": "0xd8165743"
    },
    {
      "constant": true,
      "inputs": [
        {
          "name": "_address",
          "type": "address"
        }
      ],
      "name": "isAdmin",
      "outputs": [
        {
          "name": "",
          "type": "bool"
        }
      ],
      "payable": false,
      "stateMutability": "view",
      "type": "function",
      "signature": "0x24d7806c"
    },
    {
      "constant": true,
      "inputs": [],
      "name": "getNumberOfAdmins",
      "outputs": [
        {
          "name": "",
          "type": "uint256"
        }
      ],
      "payable": false,
      "stateMutability": "view",
      "type": "function",
      "signature": "0xe8b80810"
    },
    {
      "constant": true,
      "inputs": [
        {
          "name": "_address",
          "type": "address"
        }
      ],
      "name": "isStoreOwner",
      "outputs": [
        {
          "name": "",
          "type": "bool"
        }
      ],
      "payable": false,
      "stateMutability": "view",
      "type": "function",
      "signature": "0x5effd33c"
    },
    {
      "constant": true,
      "inputs": [],
      "name": "getNumberOfStoreOwners",
      "outputs": [
        {
          "name": "",
          "type": "uint256"
        }
      ],
      "payable": false,
      "stateMutability": "view",
      "type": "function",
      "signature": "0x348799de"
    },
    {
      "constant": true,
      "inputs": [],
      "name": "addressType",
      "outputs": [
        {
          "name": "",
          "type": "uint8"
        }
      ],
      "payable": false,
      "stateMutability": "view",
      "type": "function",
      "signature": "0x506cd107"
    },
    {
      "constant": false,
      "inputs": [
        {
          "name": "_storeNum",
          "type": "uint256"
        }
      ],
      "name": "approveStoreFront",
      "outputs": [],
      "payable": false,
      "stateMutability": "nonpayable",
      "type": "function",
      "signature": "0xef35f349"
    },
    {
      "constant": true,
      "inputs": [],
      "name": "getContractBalance",
      "outputs": [
        {
          "name": "",
          "type": "uint256"
        }
      ],
      "payable": false,
      "stateMutability": "view",
      "type": "function",
      "signature": "0x6f9fb98a"
    },
    {
      "constant": false,
      "inputs": [],
      "name": "destroyContract",
      "outputs": [],
      "payable": false,
      "stateMutability": "nonpayable",
      "type": "function",
      "signature": "0x092a5cce"
    },
    {
      "constant": false,
      "inputs": [
        {
          "name": "_storeName",
          "type": "string"
        }
      ],
      "name": "createStoreFront",
      "outputs": [
        {
          "name": "",
          "type": "bool"
        }
      ],
      "payable": false,
      "stateMutability": "nonpayable",
      "type": "function",
      "signature": "0x2fc826bd"
    },
    {
      "constant": false,
      "inputs": [
        {
          "name": "_storeNum",
          "type": "uint256"
        },
        {
          "name": "_productName",
          "type": "string"
        },
        {
          "name": "_productPrice",
          "type": "uint256"
        },
        {
          "name": "_productQuantity",
          "type": "uint256"
        }
      ],
      "name": "addProduct",
      "outputs": [
        {
          "name": "",
          "type": "uint256"
        }
      ],
      "payable": false,
      "stateMutability": "nonpayable",
      "type": "function",
      "signature": "0xc27ed2a2"
    },
    {
      "constant": false,
      "inputs": [
        {
          "name": "_storeNum",
          "type": "uint256"
        },
        {
          "name": "_productNum",
          "type": "uint256"
        },
        {
          "name": "_newProductPrice",
          "type": "uint256"
        }
      ],
      "name": "updateProductPrice",
      "outputs": [
        {
          "name": "",
          "type": "bool"
        }
      ],
      "payable": false,
      "stateMutability": "nonpayable",
      "type": "function",
      "signature": "0x881a930b"
    },
    {
      "constant": false,
      "inputs": [
        {
          "name": "_storeNum",
          "type": "uint256"
        },
        {
          "name": "_productNum",
          "type": "uint256"
        }
      ],
      "name": "removeProduct",
      "outputs": [
        {
          "name": "",
          "type": "bool"
        }
      ],
      "payable": false,
      "stateMutability": "nonpayable",
      "type": "function",
      "signature": "0x5287d535"
    },
    {
      "constant": false,
      "inputs": [
        {
          "name": "_storeNum",
          "type": "uint256"
        }
      ],
      "name": "withdraw",
      "outputs": [],
      "payable": true,
      "stateMutability": "payable",
      "type": "function",
      "signature": "0x2e1a7d4d"
    },
    {
      "constant": true,
      "inputs": [],
      "name": "getStoreFrontCount",
      "outputs": [
        {
          "name": "",
          "type": "uint256"
        }
      ],
      "payable": false,
      "stateMutability": "view",
      "type": "function",
      "signature": "0x1e5be6df"
    },
    {
      "constant": true,
      "inputs": [],
      "name": "getProductCount",
      "outputs": [
        {
          "name": "",
          "type": "uint256"
        }
      ],
      "payable": false,
      "stateMutability": "view",
      "type": "function",
      "signature": "0x4a348da9"
    },
    {
      "constant": true,
      "inputs": [
        {
          "name": "_storeNum",
          "type": "uint256"
        }
      ],
      "name": "getTotalProducts",
      "outputs": [
        {
          "name": "",
          "type": "uint256"
        }
      ],
      "payable": false,
      "stateMutability": "view",
      "type": "function",
      "signature": "0x678479a0"
    },
    {
      "constant": true,
      "inputs": [
        {
          "name": "_storeNum",
          "type": "uint256"
        }
      ],
      "name": "getStoreFrontInfo",
      "outputs": [
        {
          "name": "",
          "type": "string"
        },
        {
          "name": "",
          "type": "address"
        },
        {
          "name": "",
          "type": "address"
        },
        {
          "name": "",
          "type": "uint256"
        },
        {
          "name": "",
          "type": "uint256"
        },
        {
          "name": "",
          "type": "bool"
        }
      ],
      "payable": false,
      "stateMutability": "view",
      "type": "function",
      "signature": "0x78acd5c8"
    },
    {
      "constant": true,
      "inputs": [],
      "name": "getStoreFrontByStoreOwner",
      "outputs": [
        {
          "name": "",
          "type": "uint256[]"
        }
      ],
      "payable": false,
      "stateMutability": "view",
      "type": "function",
      "signature": "0x98ec32ce"
    },
    {
      "constant": true,
      "inputs": [
        {
          "name": "_storeNum",
          "type": "uint256"
        }
      ],
      "name": "getStoreOwnerByStoreFront",
      "outputs": [
        {
          "name": "",
          "type": "address"
        }
      ],
      "payable": false,
      "stateMutability": "view",
      "type": "function",
      "signature": "0xaa26a305"
    },
    {
      "constant": true,
      "inputs": [
        {
          "name": "_productNum",
          "type": "uint256"
        }
      ],
      "name": "getProductInfo",
      "outputs": [
        {
          "name": "",
          "type": "string"
        },
        {
          "name": "",
          "type": "uint256"
        },
        {
          "name": "",
          "type": "uint256"
        },
        {
          "name": "",
          "type": "uint256"
        },
        {
          "name": "",
          "type": "uint256"
        },
        {
          "name": "",
          "type": "bool"
        }
      ],
      "payable": false,
      "stateMutability": "view",
      "type": "function",
      "signature": "0x79a85e6c"
    },
    {
      "constant": true,
      "inputs": [
        {
          "name": "_storeNum",
          "type": "uint256"
        }
      ],
      "name": "getProductsByStoreFront",
      "outputs": [
        {
          "name": "",
          "type": "uint256[]"
        }
      ],
      "payable": false,
      "stateMutability": "view",
      "type": "function",
      "signature": "0x51f0c51a"
    },
    {
      "constant": false,
      "inputs": [
        {
          "name": "_storeNum",
          "type": "uint256"
        },
        {
          "name": "_productNum",
          "type": "uint256"
        }
      ],
      "name": "purchaseProduct",
      "outputs": [
        {
          "name": "",
          "type": "bool"
        }
      ],
      "payable": true,
      "stateMutability": "payable",
      "type": "function",
      "signature": "0xa0440426"
    }
  ],
  "bytecode": "0x608060405234801561001057600080fd5b50336000806101000a81548173ffffffffffffffffffffffffffffffffffffffff021916908373ffffffffffffffffffffffffffffffffffffffff1602179055506000809054906101000a900473ffffffffffffffffffffffffffffffffffffffff1673ffffffffffffffffffffffffffffffffffffffff16600073ffffffffffffffffffffffffffffffffffffffff167f8be0079c531659141344cd1fd0a4f28419497f9722a3daafe3b4186f6b6457e060405160405180910390a36001600660003373ffffffffffffffffffffffffffffffffffffffff1673ffffffffffffffffffffffffffffffffffffffff16815260200190815260200160002060006101000a81548160ff02191690831515021790555060006001819055506001600281905550600060038190555060006004819055506001600560006101000a81548160ff02191690831515021790555061479a8061016f6000396000f3fe60806040526004361061021a576000357c0100000000000000000000000000000000000000000000000000000000900463ffffffff168063057cc2a11461021c578063092a5cce1461028557806313db203e1461029c5780631785f53c146103175780631e5be6df1461036857806324d7806c146103935780632b7832b3146103fc5780632e1a7d4d146104275780632fc826bd146104555780633191d40114610535578063348799de1461066857806342907cef14610693578063429b62e5146107025780634a348da91461076b578063506cd1071461079657806351f0c51a146107cf5780635287d5351461085f5780635effd33c146108bc5780636174fdd114610925578063678479a0146109765780636f9fb98a146109c557806370480275146109f0578063715018a614610a4157806378acd5c814610a5857806379a85e6c14610b8b578063881a930b14610c665780638c70439a14610ccd5780638da5cb5b14610da85780638f32d59b14610dff57806398ec32ce14610e2e5780639adeb5f114610e9a578063a044042614610eeb578063a1b141d414610f3b578063a954d1e414610f66578063aa26a30514610f95578063b75fd88f14611010578063c27ed2a21461103b578063d202330f14611135578063d816574314611172578063e0f6ef87146111a1578063e8b80810146111cc578063ef35f349146111f7578063f2fde38b14611232578063f452df3814611283575b005b34801561022857600080fd5b5061026b6004803603602081101561023f57600080fd5b81019080803573ffffffffffffffffffffffffffffffffffffffff1690602001909291905050506112dc565b604051808215151515815260200191505060405180910390f35b34801561029157600080fd5b5061029a6112fc565b005b3480156102a857600080fd5b506102d5600480360360208110156102bf57600080fd5b8101908080359060200190929190505050611328565b604051808273ffffffffffffffffffffffffffffffffffffffff1673ffffffffffffffffffffffffffffffffffffffff16815260200191505060405180910390f35b34801561032357600080fd5b506103666004803603602081101561033a57600080fd5b81019080803573ffffffffffffffffffffffffffffffffffffffff16906020019092919050505061135b565b005b34801561037457600080fd5b5061037d611507565b6040518082815260200191505060405180910390f35b34801561039f57600080fd5b506103e2600480360360208110156103b657600080fd5b81019080803573ffffffffffffffffffffffffffffffffffffffff169060200190929190505050611511565b604051808215151515815260200191505060405180910390f35b34801561040857600080fd5b50610411611567565b6040518082815260200191505060405180910390f35b6104536004803603602081101561043d57600080fd5b810190808035906020019092919050505061156d565b005b34801561046157600080fd5b5061051b6004803603602081101561047857600080fd5b810190808035906020019064010000000081111561049557600080fd5b8201836020820111156104a757600080fd5b803590602001918460018302840111640100000000831117156104c957600080fd5b91908080601f016020809104026020016040519081016040528093929190818152602001838380828437600081840152601f19601f820116905080830192505050505050509192919290505050611872565b604051808215151515815260200191505060405180910390f35b34801561054157600080fd5b5061056e6004803603602081101561055857600080fd5b8101908080359060200190929190505050611ceb565b60405180806020018773ffffffffffffffffffffffffffffffffffffffff1673ffffffffffffffffffffffffffffffffffffffff1681526020018673ffffffffffffffffffffffffffffffffffffffff1673ffffffffffffffffffffffffffffffffffffffff16815260200185815260200184815260200183151515158152602001828103825288818151815260200191508051906020019080838360005b8381101561062857808201518184015260208101905061060d565b50505050905090810190601f1680156106555780820380516001836020036101000a031916815260200191505b5097505050505050505060405180910390f35b34801561067457600080fd5b5061067d611e0c565b6040518082815260200191505060405180910390f35b34801561069f57600080fd5b506106ec600480360360408110156106b657600080fd5b81019080803573ffffffffffffffffffffffffffffffffffffffff16906020019092919080359060200190929190505050611ed7565b6040518082815260200191505060405180910390f35b34801561070e57600080fd5b506107516004803603602081101561072557600080fd5b81019080803573ffffffffffffffffffffffffffffffffffffffff169060200190929190505050611f07565b604051808215151515815260200191505060405180910390f35b34801561077757600080fd5b50610780611f27565b6040518082815260200191505060405180910390f35b3480156107a257600080fd5b506107ab611f31565b604051808260038111156107bb57fe5b60ff16815260200191505060405180910390f35b3480156107db57600080fd5b50610808600480360360208110156107f257600080fd5b8101908080359060200190929190505050612035565b6040518080602001828103825283818151815260200191508051906020019060200280838360005b8381101561084b578082015181840152602081019050610830565b505050509050019250505060405180910390f35b34801561086b57600080fd5b506108a26004803603604081101561088257600080fd5b8101908080359060200190929190803590602001909291905050506120a0565b604051808215151515815260200191505060405180910390f35b3480156108c857600080fd5b5061090b600480360360208110156108df57600080fd5b81019080803573ffffffffffffffffffffffffffffffffffffffff16906020019092919050505061237d565b604051808215151515815260200191505060405180910390f35b34801561093157600080fd5b506109746004803603602081101561094857600080fd5b81019080803573ffffffffffffffffffffffffffffffffffffffff1690602001909291905050506123d3565b005b34801561098257600080fd5b506109af6004803603602081101561099957600080fd5b81019080803590602001909291905050506126b1565b6040518082815260200191505060405180910390f35b3480156109d157600080fd5b506109da6126d1565b6040518082815260200191505060405180910390f35b3480156109fc57600080fd5b50610a3f60048036036020811015610a1357600080fd5b81019080803573ffffffffffffffffffffffffffffffffffffffff169060200190929190505050612703565b005b348015610a4d57600080fd5b50610a56612933565b005b348015610a6457600080fd5b50610a9160048036036020811015610a7b57600080fd5b8101908080359060200190929190505050612a05565b60405180806020018773ffffffffffffffffffffffffffffffffffffffff1673ffffffffffffffffffffffffffffffffffffffff1681526020018673ffffffffffffffffffffffffffffffffffffffff1673ffffffffffffffffffffffffffffffffffffffff16815260200185815260200184815260200183151515158152602001828103825288818151815260200191508051906020019080838360005b83811015610b4b578082015181840152602081019050610b30565b50505050905090810190601f168015610b785780820380516001836020036101000a031916815260200191505b5097505050505050505060405180910390f35b348015610b9757600080fd5b50610bc460048036036020811015610bae57600080fd5b8101908080359060200190929190505050612b96565b604051808060200187815260200186815260200185815260200184815260200183151515158152602001828103825288818151815260200191508051906020019080838360005b83811015610c26578082015181840152602081019050610c0b565b50505050905090810190601f168015610c535780820380516001836020036101000a031916815260200191505b5097505050505050505060405180910390f35b348015610c7257600080fd5b50610cb360048036036060811015610c8957600080fd5b81019080803590602001909291908035906020019092919080359060200190929190505050612ce7565b604051808215151515815260200191505060405180910390f35b348015610cd957600080fd5b50610d0660048036036020811015610cf057600080fd5b810190808035906020019092919050505061300d565b604051808060200187815260200186815260200185815260200184815260200183151515158152602001828103825288818151815260200191508051906020019080838360005b83811015610d68578082015181840152602081019050610d4d565b50505050905090810190601f168015610d955780820380516001836020036101000a031916815260200191505b5097505050505050505060405180910390f35b348015610db457600080fd5b50610dbd6130ee565b604051808273ffffffffffffffffffffffffffffffffffffffff1673ffffffffffffffffffffffffffffffffffffffff16815260200191505060405180910390f35b348015610e0b57600080fd5b50610e14613117565b604051808215151515815260200191505060405180910390f35b348015610e3a57600080fd5b50610e4361316e565b6040518080602001828103825283818151815260200191508051906020019060200280838360005b83811015610e86578082015181840152602081019050610e6b565b505050509050019250505060405180910390f35b348015610ea657600080fd5b50610ee960048036036020811015610ebd57600080fd5b81019080803573ffffffffffffffffffffffffffffffffffffffff169060200190929190505050613203565b005b610f2160048036036040811015610f0157600080fd5b810190808035906020019092919080359060200190929190505050613507565b604051808215151515815260200191505060405180910390f35b348015610f4757600080fd5b50610f50613a0c565b6040518082815260200191505060405180910390f35b348015610f7257600080fd5b50610f7b613a12565b604051808215151515815260200191505060405180910390f35b348015610fa157600080fd5b50610fce60048036036020811015610fb857600080fd5b8101908080359060200190929190505050613a25565b604051808273ffffffffffffffffffffffffffffffffffffffff1673ffffffffffffffffffffffffffffffffffffffff16815260200191505060405180910390f35b34801561101c57600080fd5b50611025613a62565b6040518082815260200191505060405180910390f35b34801561104757600080fd5b5061111f6004803603608081101561105e57600080fd5b81019080803590602001909291908035906020019064010000000081111561108557600080fd5b82018360208201111561109757600080fd5b803590602001918460018302840111640100000000831117156110b957600080fd5b91908080601f016020809104026020016040519081016040528093929190818152602001838380828437600081840152601f19601f8201169050808301925050505050505091929192908035906020019092919080359060200190929190505050613a68565b6040518082815260200191505060405180910390f35b34801561114157600080fd5b506111706004803603602081101561115857600080fd5b81019080803515159060200190929190505050613f99565b005b34801561117e57600080fd5b506111876140b5565b604051808215151515815260200191505060405180910390f35b3480156111ad57600080fd5b506111b66140cc565b6040518082815260200191505060405180910390f35b3480156111d857600080fd5b506111e16140d2565b6040518082815260200191505060405180910390f35b34801561120357600080fd5b506112306004803603602081101561121a57600080fd5b810190808035906020019092919050505061419d565b005b34801561123e57600080fd5b506112816004803603602081101561125557600080fd5b81019080803573ffffffffffffffffffffffffffffffffffffffff169060200190929190505050614513565b005b34801561128f57600080fd5b506112c6600480360360408110156112a657600080fd5b810190808035906020019092919080359060200190929190505050614532565b6040518082815260200191505060405180910390f35b60076020528060005260406000206000915054906101000a900460ff1681565b611304613117565b151561130f57600080fd5b3073ffffffffffffffffffffffffffffffffffffffff16ff5b600a6020528060005260406000206000915054906101000a900473ffffffffffffffffffffffffffffffffffffffff1681565b611363613117565b151561136e57600080fd5b60011515600660008373ffffffffffffffffffffffffffffffffffffffff1673ffffffffffffffffffffffffffffffffffffffff16815260200190815260200160002060009054906101000a900460ff161515141515611436576040517f08c379a00000000000000000000000000000000000000000000000000000000081526004018080602001828103825260188152602001807f536f7272792c2041646d696e206e6f742065786973747321000000000000000081525060200191505060405180910390fd5b6000600660008373ffffffffffffffffffffffffffffffffffffffff1673ffffffffffffffffffffffffffffffffffffffff16815260200190815260200160002060006101000a81548160ff02191690831515021790555061149b6002546001614562565b6002819055507f8adc42fe197f62d1339f8e8570b227253823274a8158b4428824e0848e9e74c581604051808273ffffffffffffffffffffffffffffffffffffffff1673ffffffffffffffffffffffffffffffffffffffff16815260200191505060405180910390a150565b6000600354905090565b6000600660008373ffffffffffffffffffffffffffffffffffffffff1673ffffffffffffffffffffffffffffffffffffffff16815260200190815260200160002060009054906101000a900460ff169050919050565b60025481565b803373ffffffffffffffffffffffffffffffffffffffff16600a600083815260200190815260200160002060009054906101000a900473ffffffffffffffffffffffffffffffffffffffff1673ffffffffffffffffffffffffffffffffffffffff1614151561166a576040517f08c379a00000000000000000000000000000000000000000000000000000000081526004018080602001828103825260218152602001807f536f7272792c20796f7520617265206e6f7420612073746f7265206f776e657281526020017f210000000000000000000000000000000000000000000000000000000000000081525060400191505060405180910390fd5b600560009054906101000a900460ff1615156116ee576040517f08c379a00000000000000000000000000000000000000000000000000000000081526004018080602001828103825260208152602001807f536f7272792c204d61726b657420737461746520697320696e6163746976652181525060200191505060405180910390fd5b6000600860008481526020019081526020016000206004015411151561177c576040517f08c379a000000000000000000000000000000000000000000000000000000000815260040180806020018281038252601a8152602001807f536f7272792c206e6f2066756e647320617661696c61626c652100000000000081525060200191505060405180910390fd5b600060086000848152602001908152602001600020600401549050600060086000858152602001908152602001600020600401819055503373ffffffffffffffffffffffffffffffffffffffff166108fc829081150290604051600060405180830381858888f193505050501580156117f9573d6000803e3d6000fd5b507f101ec0c68f1fc97c09cf17d4a562d7d7d1c37f3b384207db8f5e14f221f356de818433604051808481526020018381526020018273ffffffffffffffffffffffffffffffffffffffff1673ffffffffffffffffffffffffffffffffffffffff168152602001935050505060405180910390a1505050565b6000600760003373ffffffffffffffffffffffffffffffffffffffff1673ffffffffffffffffffffffffffffffffffffffff16815260200190815260200160002060009054906101000a900460ff16151561195b576040517f08c379a00000000000000000000000000000000000000000000000000000000081526004018080602001828103825260218152602001807f536f7272792c20796f7520617265206e6f7420612073746f7265206f776e657281526020017f210000000000000000000000000000000000000000000000000000000000000081525060400191505060405180910390fd5b600560009054906101000a900460ff1615156119df576040517f08c379a00000000000000000000000000000000000000000000000000000000081526004018080602001828103825260208152602001807f536f7272792c204d61726b657420737461746520697320696e6163746976652181525060200191505060405180910390fd5b6119ec6003546001614584565b60038190555060c0604051908101604052808381526020013373ffffffffffffffffffffffffffffffffffffffff168152602001600073ffffffffffffffffffffffffffffffffffffffff1681526020016000815260200160008152602001600015158152506008600060035481526020019081526020016000206000820151816000019080519060200190611a839291906146c9565b5060208201518160010160006101000a81548173ffffffffffffffffffffffffffffffffffffffff021916908373ffffffffffffffffffffffffffffffffffffffff16021790555060408201518160020160006101000a81548173ffffffffffffffffffffffffffffffffffffffff021916908373ffffffffffffffffffffffffffffffffffffffff160217905550606082015181600301556080820151816004015560a08201518160050160006101000a81548160ff021916908315150217905550905050600960003373ffffffffffffffffffffffffffffffffffffffff1673ffffffffffffffffffffffffffffffffffffffff168152602001908152602001600020600354908060018154018082558091505090600182039060005260206000200160009091929091909150555033600a6000600354815260200190815260200160002060006101000a81548173ffffffffffffffffffffffffffffffffffffffff021916908373ffffffffffffffffffffffffffffffffffffffff1602179055507f981bdf87b6a5937751ec714254f33c9280af322ed4c6744b1ba943aae982b606600354833360405180848152602001806020018373ffffffffffffffffffffffffffffffffffffffff1673ffffffffffffffffffffffffffffffffffffffff168152602001828103825284818151815260200191508051906020019080838360005b83811015611ca6578082015181840152602081019050611c8b565b50505050905090810190601f168015611cd35780820380516001836020036101000a031916815260200191505b5094505050505060405180910390a160019050919050565b6008602052806000526040600020600091509050806000018054600181600116156101000203166002900480601f016020809104026020016040519081016040528092919081815260200182805460018160011615610100020316600290048015611d975780601f10611d6c57610100808354040283529160200191611d97565b820191906000526020600020905b815481529060010190602001808311611d7a57829003601f168201915b5050505050908060010160009054906101000a900473ffffffffffffffffffffffffffffffffffffffff16908060020160009054906101000a900473ffffffffffffffffffffffffffffffffffffffff16908060030154908060040154908060050160009054906101000a900460ff16905086565b6000600660003373ffffffffffffffffffffffffffffffffffffffff1673ffffffffffffffffffffffffffffffffffffffff16815260200190815260200160002060009054906101000a900460ff161515611ecf576040517f08c379a00000000000000000000000000000000000000000000000000000000081526004018080602001828103825260198152602001807f536f7272792c20796f7520617265206e6f742061646d696e210000000000000081525060200191505060405180910390fd5b600154905090565b600960205281600052604060002081815481101515611ef257fe5b90600052602060002001600091509150505481565b60066020528060005260406000206000915054906101000a900460ff1681565b6000600454905090565b6000611f3b6130ee565b73ffffffffffffffffffffffffffffffffffffffff163373ffffffffffffffffffffffffffffffffffffffff161415611f775760009050612032565b600660003373ffffffffffffffffffffffffffffffffffffffff1673ffffffffffffffffffffffffffffffffffffffff16815260200190815260200160002060009054906101000a900460ff1615611fd25760019050612032565b600760003373ffffffffffffffffffffffffffffffffffffffff1673ffffffffffffffffffffffffffffffffffffffff16815260200190815260200160002060009054906101000a900460ff161561202d5760029050612032565b600390505b90565b6060600c600083815260200190815260200160002080548060200260200160405190810160405280929190818152602001828054801561209457602002820191906000526020600020905b815481526020019060010190808311612080575b50505050509050919050565b6000823373ffffffffffffffffffffffffffffffffffffffff16600a600083815260200190815260200160002060009054906101000a900473ffffffffffffffffffffffffffffffffffffffff1673ffffffffffffffffffffffffffffffffffffffff1614151561219f576040517f08c379a00000000000000000000000000000000000000000000000000000000081526004018080602001828103825260218152602001807f536f7272792c20796f7520617265206e6f7420612073746f7265206f776e657281526020017f210000000000000000000000000000000000000000000000000000000000000081525060400191505060405180910390fd5b600560009054906101000a900460ff161515612223576040517f08c379a00000000000000000000000000000000000000000000000000000000081526004018080602001828103825260208152602001807f536f7272792c204d61726b657420737461746520697320696e6163746976652181525060200191505060405180910390fd5b600115156008600086815260200190815260200160002060050160009054906101000a900460ff1615151415156122e8576040517f08c379a00000000000000000000000000000000000000000000000000000000081526004018080602001828103825260278152602001807f536f7272792c2073746f72652066726f6e74206973206e6f7420617070726f7681526020017f656420796574210000000000000000000000000000000000000000000000000081525060400191505060405180910390fd5b6000600b600085815260200190815260200160002060050160006101000a81548160ff0219169083151502179055506000600b6000858152602001908152602001600020600401819055507fee5c25bc05965731664c56badbcca59a6253500c527c65804cd0767ae581b92b8484604051808381526020018281526020019250505060405180910390a1600191505092915050565b6000600760008373ffffffffffffffffffffffffffffffffffffffff1673ffffffffffffffffffffffffffffffffffffffff16815260200190815260200160002060009054906101000a900460ff169050919050565b600660003373ffffffffffffffffffffffffffffffffffffffff1673ffffffffffffffffffffffffffffffffffffffff16815260200190815260200160002060009054906101000a900460ff161515612494576040517f08c379a00000000000000000000000000000000000000000000000000000000081526004018080602001828103825260198152602001807f536f7272792c20796f7520617265206e6f742061646d696e210000000000000081525060200191505060405180910390fd5b600560009054906101000a900460ff161515612518576040517f08c379a00000000000000000000000000000000000000000000000000000000081526004018080602001828103825260208152602001807f536f7272792c204d61726b657420737461746520697320696e6163746976652181525060200191505060405180910390fd5b60011515600760008373ffffffffffffffffffffffffffffffffffffffff1673ffffffffffffffffffffffffffffffffffffffff16815260200190815260200160002060009054906101000a900460ff1615151415156125e0576040517f08c379a000000000000000000000000000000000000000000000000000000000815260040180806020018281038252601e8152602001807f536f7272792c2073746f7265206f776e6572206e6f742065786973747321000081525060200191505060405180910390fd5b6000600760008373ffffffffffffffffffffffffffffffffffffffff1673ffffffffffffffffffffffffffffffffffffffff16815260200190815260200160002060006101000a81548160ff0219169083151502179055506126456001546001614562565b6001819055507f22caa343850d2d07f25e3192677ebe186d760928866ff8c06e97aee771f0095f81604051808273ffffffffffffffffffffffffffffffffffffffff1673ffffffffffffffffffffffffffffffffffffffff16815260200191505060405180910390a150565b600060086000838152602001908152602001600020600301549050919050565b60006126db613117565b15156126e657600080fd5b3073ffffffffffffffffffffffffffffffffffffffff1631905090565b61270b613117565b151561271657600080fd5b600560009054906101000a900460ff16151561279a576040517f08c379a00000000000000000000000000000000000000000000000000000000081526004018080602001828103825260208152602001807f536f7272792c204d61726b657420737461746520697320696e6163746976652181525060200191505060405180910390fd5b60001515600660008373ffffffffffffffffffffffffffffffffffffffff1673ffffffffffffffffffffffffffffffffffffffff16815260200190815260200160002060009054906101000a900460ff161515141515612862576040517f08c379a000000000000000000000000000000000000000000000000000000000815260040180806020018281038252601c8152602001807f536f7272792c2041646d696e20616c726561647920657869737473210000000081525060200191505060405180910390fd5b6001600660008373ffffffffffffffffffffffffffffffffffffffff1673ffffffffffffffffffffffffffffffffffffffff16815260200190815260200160002060006101000a81548160ff0219169083151502179055506128c76002546001614584565b6002819055507fefcbb6030dbeda3448a657cc462d3fde6f3b78e2710bd7b2d9e2ab358a12e17081604051808273ffffffffffffffffffffffffffffffffffffffff1673ffffffffffffffffffffffffffffffffffffffff16815260200191505060405180910390a150565b61293b613117565b151561294657600080fd5b600073ffffffffffffffffffffffffffffffffffffffff166000809054906101000a900473ffffffffffffffffffffffffffffffffffffffff1673ffffffffffffffffffffffffffffffffffffffff167f8be0079c531659141344cd1fd0a4f28419497f9722a3daafe3b4186f6b6457e060405160405180910390a360008060006101000a81548173ffffffffffffffffffffffffffffffffffffffff021916908373ffffffffffffffffffffffffffffffffffffffff160217905550565b60606000806000806000600860008881526020019081526020016000206000016008600089815260200190815260200160002060010160009054906101000a900473ffffffffffffffffffffffffffffffffffffffff16600860008a815260200190815260200160002060020160009054906101000a900473ffffffffffffffffffffffffffffffffffffffff16600860008b815260200190815260200160002060030154600860008c815260200190815260200160002060040154600860008d815260200190815260200160002060050160009054906101000a900460ff16858054600181600116156101000203166002900480601f016020809104026020016040519081016040528092919081815260200182805460018160011615610100020316600290048015612b7a5780601f10612b4f57610100808354040283529160200191612b7a565b820191906000526020600020905b815481529060010190602001808311612b5d57829003601f168201915b5050505050955095509550955095509550955091939550919395565b60606000806000806000600b6000888152602001908152602001600020600001600b600089815260200190815260200160002060010154600b60008a815260200190815260200160002060020154600b60008b815260200190815260200160002060030154600b60008c815260200190815260200160002060040154600b60008d815260200190815260200160002060050160009054906101000a900460ff16858054600181600116156101000203166002900480601f016020809104026020016040519081016040528092919081815260200182805460018160011615610100020316600290048015612ccb5780601f10612ca057610100808354040283529160200191612ccb565b820191906000526020600020905b815481529060010190602001808311612cae57829003601f168201915b5050505050955095509550955095509550955091939550919395565b6000833373ffffffffffffffffffffffffffffffffffffffff16600a600083815260200190815260200160002060009054906101000a900473ffffffffffffffffffffffffffffffffffffffff1673ffffffffffffffffffffffffffffffffffffffff16141515612de6576040517f08c379a00000000000000000000000000000000000000000000000000000000081526004018080602001828103825260218152602001807f536f7272792c20796f7520617265206e6f7420612073746f7265206f776e657281526020017f210000000000000000000000000000000000000000000000000000000000000081525060400191505060405180910390fd5b600560009054906101000a900460ff161515612e6a576040517f08c379a00000000000000000000000000000000000000000000000000000000081526004018080602001828103825260208152602001807f536f7272792c204d61726b657420737461746520697320696e6163746976652181525060200191505060405180910390fd5b600115156008600087815260200190815260200160002060050160009054906101000a900460ff161515141515612f2f576040517f08c379a00000000000000000000000000000000000000000000000000000000081526004018080602001828103825260278152602001807f536f7272792c2073746f72652066726f6e74206973206e6f7420617070726f7681526020017f656420796574210000000000000000000000000000000000000000000000000081525060400191505060405180910390fd5b600083111515612fa7576040517f08c379a000000000000000000000000000000000000000000000000000000000815260040180806020018281038252601d8152602001807f536f7272792c20696e76616c69642070726f647563742070726963652100000081525060200191505060405180910390fd5b82600b6000868152602001908152602001600020600301819055507f9987862e9f463e3075602b8f1247bada327ce78280095dd85620ae7e879a8b6e8585604051808381526020018281526020019250505060405180910390a160019150509392505050565b600b602052806000526040600020600091509050806000018054600181600116156101000203166002900480601f0160208091040260200160405190810160405280929190818152602001828054600181600116156101000203166002900480156130b95780601f1061308e576101008083540402835291602001916130b9565b820191906000526020600020905b81548152906001019060200180831161309c57829003601f168201915b5050505050908060010154908060020154908060030154908060040154908060050160009054906101000a900460ff16905086565b60008060009054906101000a900473ffffffffffffffffffffffffffffffffffffffff16905090565b60008060009054906101000a900473ffffffffffffffffffffffffffffffffffffffff1673ffffffffffffffffffffffffffffffffffffffff163373ffffffffffffffffffffffffffffffffffffffff1614905090565b6060600960003373ffffffffffffffffffffffffffffffffffffffff1673ffffffffffffffffffffffffffffffffffffffff1681526020019081526020016000208054806020026020016040519081016040528092919081815260200182805480156131f957602002820191906000526020600020905b8154815260200190600101908083116131e5575b5050505050905090565b600660003373ffffffffffffffffffffffffffffffffffffffff1673ffffffffffffffffffffffffffffffffffffffff16815260200190815260200160002060009054906101000a900460ff1615156132c4576040517f08c379a00000000000000000000000000000000000000000000000000000000081526004018080602001828103825260198152602001807f536f7272792c20796f7520617265206e6f742061646d696e210000000000000081525060200191505060405180910390fd5b600560009054906101000a900460ff161515613348576040517f08c379a00000000000000000000000000000000000000000000000000000000081526004018080602001828103825260208152602001807f536f7272792c204d61726b657420737461746520697320696e6163746976652181525060200191505060405180910390fd5b60001515600760008373ffffffffffffffffffffffffffffffffffffffff1673ffffffffffffffffffffffffffffffffffffffff16815260200190815260200160002060009054906101000a900460ff161515141515613436576040517f08c379a00000000000000000000000000000000000000000000000000000000081526004018080602001828103825260228152602001807f536f7272792c2073746f7265206f776e657220616c726561647920657869737481526020017f732100000000000000000000000000000000000000000000000000000000000081525060400191505060405180910390fd5b6001600760008373ffffffffffffffffffffffffffffffffffffffff1673ffffffffffffffffffffffffffffffffffffffff16815260200190815260200160002060006101000a81548160ff02191690831515021790555061349b6001546001614584565b6001819055507fc48be1259827f286158037425eac2071e5a2ce505bf01d53384e77fa0ef60da281604051808273ffffffffffffffffffffffffffffffffffffffff1673ffffffffffffffffffffffffffffffffffffffff16815260200191505060405180910390a150565b6000600760003373ffffffffffffffffffffffffffffffffffffffff1673ffffffffffffffffffffffffffffffffffffffff16815260200190815260200160002060009054906101000a900460ff161515156135f1576040517f08c379a00000000000000000000000000000000000000000000000000000000081526004018080602001828103825260328152602001807f536f7272792c2073746f7265206f776e6572206973206e6f7420616c6c6f776581526020017f6420746f206275792070726f647563747321000000000000000000000000000081525060400191505060405180910390fd5b600660003373ffffffffffffffffffffffffffffffffffffffff1673ffffffffffffffffffffffffffffffffffffffff16815260200190815260200160002060009054906101000a900460ff161515156136d9576040517f08c379a000000000000000000000000000000000000000000000000000000000815260040180806020018281038252602c8152602001807f536f7272792c2061646d696e206973206e6f7420616c6c6f77656420746f206281526020017f75792070726f647563747321000000000000000000000000000000000000000081525060400191505060405180910390fd5b600560009054906101000a900460ff16151561375d576040517f08c379a00000000000000000000000000000000000000000000000000000000081526004018080602001828103825260208152602001807f536f7272792c204d61726b657420737461746520697320696e6163746976652181525060200191505060405180910390fd5b34600b60008481526020019081526020016000206003015411151515613811576040517f08c379a00000000000000000000000000000000000000000000000000000000081526004018080602001828103825260388152602001807f536f7272792c207472616e736665727265642076616c7565206973206c65737381526020017f207468616e207468652070726f6475637420707269636521000000000000000081525060400191505060405180910390fd5b6000600b60008481526020019081526020016000206004015411151561389f576040517f08c379a00000000000000000000000000000000000000000000000000000000081526004018080602001828103825260208152602001807f536f7272792c2070726f64756374206973206e6f7420617661696c61626c652181525060200191505060405180910390fd5b60006138c134600b6000868152602001908152602001600020600301546145a5565b90506138e3600b60008581526020019081526020016000206004015482614562565b600b6000858152602001908152602001600020600401819055506000600b600085815260200190815260200160002060040154141561394c576000600b600085815260200190815260200160002060050160006101000a81548160ff0219169083151502179055505b61396c600860008681526020019081526020016000206004015434614584565b60086000868152602001908152602001600020600401819055507f324053f20c3456e1c74e05e0171fc80eff371fe7eb33719a81ecded399e31e3484848333604051808581526020018481526020018381526020018273ffffffffffffffffffffffffffffffffffffffff1673ffffffffffffffffffffffffffffffffffffffff16815260200194505050505060405180910390a1600191505092915050565b60035481565b600560009054906101000a900460ff1681565b6000600a600083815260200190815260200160002060009054906101000a900473ffffffffffffffffffffffffffffffffffffffff169050919050565b60015481565b6000843373ffffffffffffffffffffffffffffffffffffffff16600a600083815260200190815260200160002060009054906101000a900473ffffffffffffffffffffffffffffffffffffffff1673ffffffffffffffffffffffffffffffffffffffff16141515613b67576040517f08c379a00000000000000000000000000000000000000000000000000000000081526004018080602001828103825260218152602001807f536f7272792c20796f7520617265206e6f7420612073746f7265206f776e657281526020017f210000000000000000000000000000000000000000000000000000000000000081525060400191505060405180910390fd5b600560009054906101000a900460ff161515613beb576040517f08c379a00000000000000000000000000000000000000000000000000000000081526004018080602001828103825260208152602001807f536f7272792c204d61726b657420737461746520697320696e6163746976652181525060200191505060405180910390fd5b600115156008600088815260200190815260200160002060050160009054906101000a900460ff161515141515613cb0576040517f08c379a00000000000000000000000000000000000000000000000000000000081526004018080602001828103825260278152602001807f536f7272792c2073746f72652066726f6e74206973206e6f7420617070726f7681526020017f656420796574210000000000000000000000000000000000000000000000000081525060400191505060405180910390fd5b600084111515613d28576040517f08c379a000000000000000000000000000000000000000000000000000000000815260040180806020018281038252601d8152602001807f536f7272792c20696e76616c69642070726f647563742070726963652100000081525060200191505060405180910390fd5b600083111515613da0576040517f08c379a00000000000000000000000000000000000000000000000000000000081526004018080602001828103825260208152602001807f536f7272792c20696e76616c69642070726f64756374207175616e746974792181525060200191505060405180910390fd5b613dc160086000888152602001908152602001600020600301546001614584565b6008600088815260200190815260200160002060030181905550613de86004546001614584565b60048190555060c060405190810160405280868152602001878152602001600454815260200185815260200184815260200160011515815250600b600060045481526020019081526020016000206000820151816000019080519060200190613e529291906146c9565b506020820151816001015560408201518160020155606082015181600301556080820151816004015560a08201518160050160006101000a81548160ff021916908315150217905550905050600c600087815260200190815260200160002060045490806001815401808255809150509060018203906000526020600020016000909192909190915055507fffc61c86dc65391f52b36f4b6e6bbdf5a9352c0bdfa13d44bbcf775695cf844a86866004546040518084815260200180602001838152602001828103825284818151815260200191508051906020019080838360005b83811015613f4f578082015181840152602081019050613f34565b50505050905090810190601f168015613f7c5780820380516001836020036101000a031916815260200191505b5094505050505060405180910390a1600454915050949350505050565b613fa1613117565b1515613fac57600080fd5b801515600560009054906101000a900460ff1615151415151561405d576040517f08c379a00000000000000000000000000000000000000000000000000000000081526004018080602001828103825260218152602001807f536f7272792c20697420746865207468652063757272656e742073746174652181526020017f210000000000000000000000000000000000000000000000000000000000000081525060400191505060405180910390fd5b80600560006101000a81548160ff0219169083151502179055507fe9c1b24a64a472afd01a6d6091bc183170b8e6dbe9dad7dfb6f81adac3ee982881604051808215151515815260200191505060405180910390a150565b6000600560009054906101000a900460ff16905090565b60045481565b6000600660003373ffffffffffffffffffffffffffffffffffffffff1673ffffffffffffffffffffffffffffffffffffffff16815260200190815260200160002060009054906101000a900460ff161515614195576040517f08c379a00000000000000000000000000000000000000000000000000000000081526004018080602001828103825260198152602001807f536f7272792c20796f7520617265206e6f742061646d696e210000000000000081525060200191505060405180910390fd5b600254905090565b600660003373ffffffffffffffffffffffffffffffffffffffff1673ffffffffffffffffffffffffffffffffffffffff16815260200190815260200160002060009054906101000a900460ff16151561425e576040517f08c379a00000000000000000000000000000000000000000000000000000000081526004018080602001828103825260198152602001807f536f7272792c20796f7520617265206e6f742061646d696e210000000000000081525060200191505060405180910390fd5b600560009054906101000a900460ff1615156142e2576040517f08c379a00000000000000000000000000000000000000000000000000000000081526004018080602001828103825260208152602001807f536f7272792c204d61726b657420737461746520697320696e6163746976652181525060200191505060405180910390fd5b600354811115151561435c576040517f08c379a000000000000000000000000000000000000000000000000000000000815260040180806020018281038252601c8152602001807f536f7272792c20696e76616c69642073746f7265206e756d626572210000000081525060200191505060405180910390fd5b600015156008600083815260200190815260200160002060050160009054906101000a900460ff161515141515614421576040517f08c379a00000000000000000000000000000000000000000000000000000000081526004018080602001828103825260278152602001807f536f7272792c2073746f72652066726f6e7420697320616c6c7261647920617081526020017f70726f766564210000000000000000000000000000000000000000000000000081525060400191505060405180910390fd5b336008600083815260200190815260200160002060020160006101000a81548173ffffffffffffffffffffffffffffffffffffffff021916908373ffffffffffffffffffffffffffffffffffffffff16021790555060016008600083815260200190815260200160002060050160006101000a81548160ff0219169083151502179055507f9f83727d978b1193e2ac81836315bf23a536181b5bddbcbf39f987dbf2b1fee08133604051808381526020018273ffffffffffffffffffffffffffffffffffffffff1673ffffffffffffffffffffffffffffffffffffffff1681526020019250505060405180910390a150565b61451b613117565b151561452657600080fd5b61452f816145cf565b50565b600c6020528160005260406000208181548110151561454d57fe5b90600052602060002001600091509150505481565b600082821115151561457357600080fd5b600082840390508091505092915050565b600080828401905083811015151561459b57600080fd5b8091505092915050565b600080821115156145b557600080fd5b600082848115156145c257fe5b0490508091505092915050565b600073ffffffffffffffffffffffffffffffffffffffff168173ffffffffffffffffffffffffffffffffffffffff161415151561460b57600080fd5b8073ffffffffffffffffffffffffffffffffffffffff166000809054906101000a900473ffffffffffffffffffffffffffffffffffffffff1673ffffffffffffffffffffffffffffffffffffffff167f8be0079c531659141344cd1fd0a4f28419497f9722a3daafe3b4186f6b6457e060405160405180910390a3806000806101000a81548173ffffffffffffffffffffffffffffffffffffffff021916908373ffffffffffffffffffffffffffffffffffffffff16021790555050565b828054600181600116156101000203166002900490600052602060002090601f016020900481019282601f1061470a57805160ff1916838001178555614738565b82800160010185558215614738579182015b8281111561473757825182559160200191906001019061471c565b5b5090506147459190614749565b5090565b61476b91905b8082111561476757600081600090555060010161474f565b5090565b9056fea165627a7a72305820503a30cfb4f3729eb3eb64d4e25097895cf6832f053f49abe1ce99d29a2687c00029",
  "source": "pragma solidity ^0.5.0;\n\n/** EthPM */\n//import Ownable contract from openzeppelin-solidity for basic authorization control\nimport \"openzeppelin-solidity/contracts/ownership/Ownable.sol\";\n//import SafeMath library from openzeppelin-solidity for integer overflows and underflow\nimport \"openzeppelin-solidity/contracts/math/SafeMath.sol\";\n\n/** @title MarketPlace: a simple smart contract for a market place on Ethereum.\n  * @author  Wafa AlDamegh.\n  * @notice  Final project for ConsenSys Academy's Developer Bootcamp 2019.\n  */\ncontract MarketPlace is Ownable {\n    \n    //Uses SafeMath library to avoid integer overflow/underflow attacks\n    using SafeMath for uint256; \n\n    //state variables\n    uint public storeOwnersCount;\n    uint public adminCount;\n    uint public storeCount;\n    uint public productCount;\n    bool public marktState;\n    mapping (address => bool) public admins;\n    mapping (address => bool) public storeOwners;\n    mapping(uint => StoreFront) public storeFronts;\n    mapping(address => uint[]) public storeOwnertoStoreFront;\n    mapping(uint => address) public storeFronttoStoreOwner;\n    mapping(uint => Product) public StoreProducts;\n    mapping(uint => uint[]) public stotrFronttoProducts;\n\n\n    //struct\n    struct StoreFront {\n        string storeName;\n        address storeOwner;\n        address approverAdmin;\n        uint skuCount;\n        uint balance;\n        bool state;\n    }\n    \n    struct Product {\n        string name;\n        uint storeNum;\n        uint productNum;\n        uint price;\n        uint quantity;\n        bool isAvailable;\n    } \n\n\n    //enum for address type\n    enum addressTypes { marketOwner, admin, storeOwner, shopper }\n\n    //events\n    event adminAdded(address newAdmin);\n    event adminRemoved(address admin);\n    event storeOwnerAdded(address newStoreOwner);\n    event storeOwnerRemoved(address storeOwner);\n    event marketStateChanged(bool state);\n    event storeFrontCreated(uint storeNum, string storeName, address storeOwner);\n    event storeFrontApproved(uint storeNum, address admin);\n    event productAdded(uint storeNum, string productName, uint productNum);\n    event productPriceUpdated(uint storeNum, uint productNum);\n    event productRemoved(uint storeNum, uint productNum);\n    event storeWithdrawn(uint amount, uint storeNum, address storeOwner);\n    event productPurchased(uint storeNum, uint productNum, uint quantity, address shopper);\n\n\n    //modifiers\n    /** @dev verifies the msg.sender is an admin */\n    modifier onlyAdmin() {require(admins[msg.sender], \"Sorry, you are not admin!\"); _;}\n    /** @dev verifies the msg.sender is the store owner */\n    modifier onlyStoreOwner() {require(storeOwners[msg.sender], \"Sorry, you are not a store owner!\"); _;}\n    /** @dev verifies market state */\n    modifier isMarketActive() {require(marktState, \"Sorry, Market state is inactive!\"); _;}\n    /** @dev verifies the msg.sender is the store owner of the store front */\n    modifier verifyStoreOwner(uint storeNum) {require(storeFronttoStoreOwner[storeNum] == msg.sender, \"Sorry, you are not a store owner!\"); _;}\n    /** @dev verifies the msg.sender is not a store owner or admin */\n    modifier onlyShopper(){require(!storeOwners[msg.sender], \"Sorry, store owner is not allowed to buy products!\"); \n    require(!admins[msg.sender], \"Sorry, admin is not allowed to buy products!\"); _;}\n\n\n    //functions\n\n    /** @dev constracter initalises state variables */\n    constructor() public {\n        admins[msg.sender] = true;\n        storeOwnersCount = 0;\n        adminCount = 1;\n        storeCount = 0;\n        productCount = 0;\n        marktState = true;\n    }\n\n    /** @dev market owner allowed to add a new admin \n      * @param _newAdmin new admin addrress \n    */\n    function addAdmin(address _newAdmin) public onlyOwner() isMarketActive() {\n        require(admins[_newAdmin] == false, \"Sorry, Admin already exists!\");\n        admins[_newAdmin] = true;\n        adminCount = SafeMath.add(adminCount, 1);\n        emit adminAdded(_newAdmin);\n    }\n\n    /** @dev market owner allowed to remove an admin \n      * @param _admin  admin addrress \n    */\n    function removeAdmin(address _admin) public onlyOwner() {\n        require(admins[_admin] == true, \"Sorry, Admin not exists!\");\n        admins[_admin] = false;\n        adminCount = SafeMath.sub(adminCount, 1);\n        emit adminRemoved(_admin);\n    }\n\n    /** @dev admin allowed to add a new store owner \n      * @param _newStoreOwner new store owner addrress \n    */\n    function addStoreOwner(address _newStoreOwner) public onlyAdmin() isMarketActive() {\n        require(storeOwners[_newStoreOwner] == false, \"Sorry, store owner already exists!\");\n        storeOwners[_newStoreOwner] = true;\n        storeOwnersCount = SafeMath.add(storeOwnersCount, 1);\n        emit storeOwnerAdded(_newStoreOwner);\n    }\n\n    /** @dev admin allowed to remove a store owner\n      * @param _storeOwner store owner addrress \n    */\n    function removeStoreOwner(address _storeOwner) public onlyAdmin() isMarketActive() {\n        require(storeOwners[_storeOwner] == true, \"Sorry, store owner not exists!\");\n        storeOwners[_storeOwner] = false;\n        storeOwnersCount = SafeMath.sub(storeOwnersCount, 1);\n        emit storeOwnerRemoved(_storeOwner);\n    }    \n\n    /** @dev market owner allowed to chainge marketplace state \n      * @param _state new market state\n    */\n    function changeMarketState(bool _state) public onlyOwner {\n        require(marktState != _state, \"Sorry, it the the current state!!\");\n        marktState = _state;\n        emit marketStateChanged(_state);\n    }\n\n    /** @dev returns the current state of marketplace */\n    function getMarketState() public view returns(bool){\n        return marktState;\n    }\n\n    /** @dev returns (true) if the address is an admin, otherwise returns (false) */\n    function isAdmin(address _address) public view returns(bool) {\n        return admins[_address];\n    }\n\n    /** @dev returns the number of active admins */\n    function getNumberOfAdmins() public view onlyAdmin() returns(uint){\n        return adminCount;\n    }\n\n    /** @dev returns (true) if the address is store owner, otherwise returns (false) */\n    function isStoreOwner(address _address) public view returns(bool) {\n        return storeOwners[_address];\n    }\n\n    /** @dev returns the number of active store owners */\n    function getNumberOfStoreOwners() public view onlyAdmin() returns(uint) {\n        return storeOwnersCount;\n    }\n\n    \n    /** @dev returns the type of address (market owner, admin, store owner, or shopper) */\n    function addressType() public view returns(addressTypes) {\n        if(msg.sender == super.owner())\n            return addressTypes.marketOwner;\n        if(admins[msg.sender])\n            return addressTypes.admin;\n        if(storeOwners[msg.sender])\n            return addressTypes.storeOwner;\n        else\n            return addressTypes.shopper;\n    }\n\n    /** @dev admin can approve created store front\n      * @param _storeNum store number\n    */ \n    function approveStoreFront(uint _storeNum) public onlyAdmin() isMarketActive() {\n        require(_storeNum <= storeCount, \"Sorry, invalid store number!\");\n        require((storeFronts[_storeNum].state) == false, \"Sorry, store front is allrady approved!\");\n        storeFronts[_storeNum].approverAdmin = msg.sender;\n        storeFronts[_storeNum].state = true;\n        emit storeFrontApproved(_storeNum, msg.sender);\n    }\n\n    /** @dev View contract balance\n      * @return balance of all store fronts\n    */ \n    function getContractBalance() public view onlyOwner() returns(uint){\n        return address(this).balance;\n    }\n\n    /** @dev selfdestruct the contract to destroy the contract in case of bugs */\n    function destroyContract() public onlyOwner() {\n        selfdestruct(address(this));\n    }\n\n    ////////////////////\n\n    /** Store Owner functions */\n\n    /** @dev store owner allowed to add a new store front \n      * @param _storeName new market state\n      * @return the store number\n    */\n    function createStoreFront(string memory _storeName) public  onlyStoreOwner() isMarketActive() returns(bool){   \n        storeCount = SafeMath.add(storeCount, 1);\n        storeFronts[storeCount] = StoreFront({storeName: _storeName, storeOwner: msg.sender, approverAdmin: address(0), skuCount: 0, balance: 0, state: false});\n        storeOwnertoStoreFront[msg.sender].push(storeCount);\n        storeFronttoStoreOwner[storeCount] = msg.sender;\n        emit storeFrontCreated(storeCount, _storeName, msg.sender);\n        return true;\n    }\n\n\n    /** @dev Store owner allowed to add a new product to their store front\n      * @param _storeNum store front number\n      * @param _productName product name\n      * @param _productPrice product price\n      * @param _productQuantity available quantity of the product\n    */   \n    function addProduct(uint _storeNum, string memory _productName, uint _productPrice, uint _productQuantity) public verifyStoreOwner(_storeNum) isMarketActive() returns(uint){\n        require(storeFronts[_storeNum].state == true,  \"Sorry, store front is not approved yet!\");\n        require(_productPrice > 0, \"Sorry, invalid product price!\");\n        require(_productQuantity > 0, \"Sorry, invalid product quantity!\");\n        storeFronts[_storeNum].skuCount = SafeMath.add(storeFronts[_storeNum].skuCount, 1);\n        productCount = SafeMath.add(productCount,1);\n        StoreProducts[productCount]= Product({name: _productName,  storeNum: _storeNum, productNum: productCount, price: _productPrice, quantity: _productQuantity, isAvailable: true});\n        stotrFronttoProducts[_storeNum].push(productCount);\n        emit productAdded(_storeNum, _productName, productCount);\n        return productCount;\n    }\n\n    /** @dev Store owner allowed to update product price\n      * @param _storeNum store front number\n      * @param _productNum product nunmber\n      * @param _newProductPrice product price\n    */   \n    function updateProductPrice(uint _storeNum, uint _productNum, uint _newProductPrice) public verifyStoreOwner(_storeNum) isMarketActive() returns(bool){\n        require(storeFronts[_storeNum].state == true,  \"Sorry, store front is not approved yet!\");\n        require(_newProductPrice > 0, \"Sorry, invalid product price!\");\n        StoreProducts[_productNum].price = _newProductPrice;\n        emit productPriceUpdated(_storeNum, _productNum);\n        return true;\n    }\n\n    /** @dev Store owner allowed to remove product\n      * @param _storeNum store front number\n      * @param _productNum product nunmber\n    */   \n    function removeProduct(uint _storeNum, uint _productNum) public verifyStoreOwner(_storeNum) isMarketActive() returns(bool){\n        require(storeFronts[_storeNum].state == true,  \"Sorry, store front is not approved yet!\");\n        StoreProducts[_productNum].isAvailable = false;\n        StoreProducts[_productNum].quantity = 0;\n        emit productRemoved(_storeNum, _productNum);\n        return true;\n    }\n\n    /** @dev Store owner can withdraw balance from their store fronts \n      * @param _storeNum store front number\n    */ \n    function withdraw(uint _storeNum) public payable verifyStoreOwner(_storeNum) isMarketActive() {\n        require(storeFronts[_storeNum].balance > 0, \"Sorry, no funds available!\");\n        uint amount = storeFronts[_storeNum].balance;\n        storeFronts[_storeNum].balance = 0;\n        msg.sender.transfer(amount);\n        emit storeWithdrawn(amount, _storeNum, msg.sender);\n    }\n\n    /** @dev return total number of store fronts */  \n    function getStoreFrontCount() public view returns (uint) {\n        return storeCount;\n    }\n    /** @dev return total number of product in the market */  \n    function getProductCount() public view returns (uint) {\n        return productCount;\n    }\n\n    /** @dev return total number of products in the store front\n      * @param _storeNum store front number\n    */  \n    function getTotalProducts(uint _storeNum) public view returns (uint) {\n        return storeFronts[_storeNum].skuCount;\n    }\n\n    /** @dev return store front info\n      * @param _storeNum store front number\n    */ \n    function getStoreFrontInfo(uint _storeNum) public view returns(string memory, address, address, uint, uint, bool){\n        return (\n        storeFronts[_storeNum].storeName,\n        storeFronts[_storeNum].storeOwner,\n        storeFronts[_storeNum].approverAdmin,\n        storeFronts[_storeNum].skuCount,\n        storeFronts[_storeNum].balance,\n        storeFronts[_storeNum].state \n        );\n    }\n\n    /** @dev return store front by store owner address */ \n    function getStoreFrontByStoreOwner() public view  returns(uint[] memory){\n        return storeOwnertoStoreFront[msg.sender];\n    }\n\n    /** @dev return store owner address of the store front\n      * @param _storeNum store front number\n    */ \n    function getStoreOwnerByStoreFront(uint _storeNum) public view returns(address){\n        return storeFronttoStoreOwner[_storeNum];\n    }\n\n    /** @dev return products info\n      * @param _productNum product number\n    */ \n    function getProductInfo(uint _productNum) public view returns(string memory, uint, uint, uint, uint, bool){\n        return (\n        StoreProducts[_productNum].name,\n        StoreProducts[_productNum].storeNum,\n        StoreProducts[_productNum].productNum,\n        StoreProducts[_productNum].price,\n        StoreProducts[_productNum].quantity,\n        StoreProducts[_productNum].isAvailable\n        );\n    }\n\n    /** @dev return products by store front\n      * @param _storeNum store front number\n    */ \n    function getProductsByStoreFront(uint _storeNum) public view returns(uint[] memory){\n        return stotrFronttoProducts[_storeNum];\n    }\n    \n    ////////////////////\n\n    /** Shopper function */ \n\n    /** @dev Shopper allowed to purchase a product \n      * @param _storeNum store front number\n      * @param _productNum product number\n    */   \n    function purchaseProduct( uint _storeNum, uint _productNum) public payable onlyShopper() isMarketActive() returns(bool){\n        require(StoreProducts[_productNum].price <= msg.value, \"Sorry, transferred value is less than the product price!\");\n        require(StoreProducts[_productNum].quantity > 0, \"Sorry, product is not available!\");\n        \n        uint quantity = SafeMath.div(msg.value, StoreProducts[_productNum].price);\n        StoreProducts[_productNum].quantity = SafeMath.sub(StoreProducts[_productNum].quantity, quantity);\n        \n        if (StoreProducts[_productNum].quantity == 0){StoreProducts[_productNum].isAvailable = false;}\n        \n        storeFronts[_storeNum].balance = SafeMath.add(storeFronts[_storeNum].balance,msg.value);\n        \n        emit productPurchased(_storeNum, _productNum, quantity, msg.sender);\n        return true;\n    }\n\n    /** @dev fallback function */\n    function() external payable {\n    }\n\n\n}",
  "sourcePath": "/home/wafa/markitplaceProject/contracts/MarketPlace.sol",
  "compiler": {
    "name": "solc",
    "version": "0.5.0+commit.1d4f565a.Emscripten.clang"
  },
  "schemaVersion": "3.0.0-beta.2",
  "updatedAt": "2019-01-27T08:37:44.257Z",
  "devdoc": {
    "author": "Wafa AlDamegh.",
    "methods": {
      "addAdmin(address)": {
        "details": "market owner allowed to add a new admin ",
        "params": {
          "_newAdmin": "new admin addrress "
        }
      },
      "addProduct(uint256,string,uint256,uint256)": {
        "details": "Store owner allowed to add a new product to their store front",
        "params": {
          "_productName": "product name",
          "_productPrice": "product price",
          "_productQuantity": "available quantity of the product",
          "_storeNum": "store front number"
        }
      },
      "addStoreOwner(address)": {
        "details": "admin allowed to add a new store owner ",
        "params": {
          "_newStoreOwner": "new store owner addrress "
        }
      },
      "addressType()": {
        "details": "returns the type of address (market owner, admin, store owner, or shopper) "
      },
      "approveStoreFront(uint256)": {
        "details": "admin can approve created store front",
        "params": {
          "_storeNum": "store number"
        }
      },
      "changeMarketState(bool)": {
        "details": "market owner allowed to chainge marketplace state ",
        "params": {
          "_state": "new market state"
        }
      },
      "constructor": {
        "details": "constracter initalises state variables "
      },
      "createStoreFront(string)": {
        "details": "store owner allowed to add a new store front ",
        "params": {
          "_storeName": "new market state"
        },
        "return": "the store number"
      },
      "destroyContract()": {
        "details": "selfdestruct the contract to destroy the contract in case of bugs "
      },
      "getContractBalance()": {
        "details": "View contract balance",
        "return": "balance of all store fronts"
      },
      "getMarketState()": {
        "details": "returns the current state of marketplace "
      },
      "getNumberOfAdmins()": {
        "details": "returns the number of active admins "
      },
      "getNumberOfStoreOwners()": {
        "details": "returns the number of active store owners "
      },
      "getProductCount()": {
        "details": "return total number of product in the market "
      },
      "getProductInfo(uint256)": {
        "details": "return products info",
        "params": {
          "_productNum": "product number"
        }
      },
      "getProductsByStoreFront(uint256)": {
        "details": "return products by store front",
        "params": {
          "_storeNum": "store front number"
        }
      },
      "getStoreFrontByStoreOwner()": {
        "details": "return store front by store owner address "
      },
      "getStoreFrontCount()": {
        "details": "return total number of store fronts "
      },
      "getStoreFrontInfo(uint256)": {
        "details": "return store front info",
        "params": {
          "_storeNum": "store front number"
        }
      },
      "getStoreOwnerByStoreFront(uint256)": {
        "details": "return store owner address of the store front",
        "params": {
          "_storeNum": "store front number"
        }
      },
      "getTotalProducts(uint256)": {
        "details": "return total number of products in the store front",
        "params": {
          "_storeNum": "store front number"
        }
      },
      "isAdmin(address)": {
        "details": "returns (true) if the address is an admin, otherwise returns (false) "
      },
      "isOwner()": {
        "return": "true if `msg.sender` is the owner of the contract."
      },
      "isStoreOwner(address)": {
        "details": "returns (true) if the address is store owner, otherwise returns (false) "
      },
      "owner()": {
        "return": "the address of the owner."
      },
      "purchaseProduct(uint256,uint256)": {
        "details": "Shopper allowed to purchase a product ",
        "params": {
          "_productNum": "product number",
          "_storeNum": "store front number"
        }
      },
      "removeAdmin(address)": {
        "details": "market owner allowed to remove an admin ",
        "params": {
          "_admin": "admin addrress "
        }
      },
      "removeProduct(uint256,uint256)": {
        "details": "Store owner allowed to remove product",
        "params": {
          "_productNum": "product nunmber",
          "_storeNum": "store front number"
        }
      },
      "removeStoreOwner(address)": {
        "details": "admin allowed to remove a store owner",
        "params": {
          "_storeOwner": "store owner addrress "
        }
      },
      "renounceOwnership()": {
        "details": "Allows the current owner to relinquish control of the contract."
      },
      "transferOwnership(address)": {
        "details": "Allows the current owner to transfer control of the contract to a newOwner.",
        "params": {
          "newOwner": "The address to transfer ownership to."
        }
      },
      "updateProductPrice(uint256,uint256,uint256)": {
        "details": "Store owner allowed to update product price",
        "params": {
          "_newProductPrice": "product price",
          "_productNum": "product nunmber",
          "_storeNum": "store front number"
        }
      },
      "withdraw(uint256)": {
        "details": "Store owner can withdraw balance from their store fronts ",
        "params": {
          "_storeNum": "store front number"
        }
      }
    },
    "title": "MarketPlace: a simple smart contract for a market place on Ethereum."
  },
  "userdoc": {
    "methods": {
      "renounceOwnership()": {
        "notice": "Renouncing to ownership will leave the contract without an owner. It will not be possible to call the functions with the `onlyOwner` modifier anymore."
      }
    },
    "notice": "Final project for ConsenSys Academy's Developer Bootcamp 2019."
  }
}